{"contracts/EventEmitter.sol":{"EventEmitter":{"abi":[{"inputs":[],"stateMutability":"nonpayable","type":"constructor"},{"anonymous":false,"inputs":[],"name":"ConstructorEvent","type":"event"},{"anonymous":false,"inputs":[],"name":"MyEvent","type":"event"},{"anonymous":false,"inputs":[{"indexed":false,"internalType":"uint256","name":"","type":"uint256"},{"indexed":false,"internalType":"string","name":"","type":"string"}],"name":"MyEventWithData","type":"event"},{"inputs":[{"internalType":"uint256","name":"x","type":"uint256"},{"internalType":"string","name":"s","type":"string"}],"name":"emitBothEvents","outputs":[],"stateMutability":"nonpayable","type":"function"},{"inputs":[],"name":"emitMyEvent","outputs":[],"stateMutability":"nonpayable","type":"function"},{"inputs":[{"internalType":"uint256","name":"x","type":"uint256"},{"internalType":"string","name":"s","type":"string"}],"name":"emitMyEventWithData","outputs":[],"stateMutability":"nonpayable","type":"function"}],"evm":{"bytecode":{"linkReferences":{},"object":"608060405234801561001057600080fd5b507f8d8cf4a5428f07ff52f5ac64c4cf7d30fd3ad16b6c04aabbf5386e8e272e03b360405160405180910390a161033c8061004c6000396000f3fe608060405234801561001057600080fd5b50600436106100415760003560e01c80632bb969e6146100465780637600232d14610050578063c26f3c691461006c575b600080fd5b61004e610088565b005b61006a60048036038101906100659190610207565b6100b6565b005b61008660048036038101906100819190610207565b610122565b005b7f4dbfb68b43dddfa12b51ebe99ab8fded620f9a0ac23142879a4f192a1b7952d260405160405180910390a1565b7f4dbfb68b43dddfa12b51ebe99ab8fded620f9a0ac23142879a4f192a1b7952d260405160405180910390a17f70cfecbfed19ac7dcd94d8821e2895b8d2bbbd12ac7d81586659183bc5019aea838383604051610115939291906102d4565b60405180910390a1505050565b7f70cfecbfed19ac7dcd94d8821e2895b8d2bbbd12ac7d81586659183bc5019aea838383604051610155939291906102d4565b60405180910390a1505050565b600080fd5b600080fd5b6000819050919050565b61017f8161016c565b811461018a57600080fd5b50565b60008135905061019c81610176565b92915050565b600080fd5b600080fd5b600080fd5b60008083601f8401126101c7576101c66101a2565b5b8235905067ffffffffffffffff8111156101e4576101e36101a7565b5b602083019150836001820283011115610200576101ff6101ac565b5b9250929050565b6000806000604084860312156102205761021f610162565b5b600061022e8682870161018d565b935050602084013567ffffffffffffffff81111561024f5761024e610167565b5b61025b868287016101b1565b92509250509250925092565b6102708161016c565b82525050565b600082825260208201905092915050565b82818337600083830152505050565b6000601f19601f8301169050919050565b60006102b38385610276565b93506102c0838584610287565b6102c983610296565b840190509392505050565b60006040820190506102e96000830186610267565b81810360208301526102fc8184866102a7565b905094935050505056fea2646970667358221220843996fea4944e1db2c4e9d9a4c76f4c009297c0f6974bcdfe5d18db6fe520b064736f6c63430008090033","opcodes":"PUSH1 0x80 PUSH1 0x40 MSTORE CALLVALUE DUP1 ISZERO PUSH2 0x10 JUMPI PUSH1 0x0 DUP1 REVERT JUMPDEST POP PUSH32 0x8D8CF4A5428F07FF52F5AC64C4CF7D30FD3AD16B6C04AABBF5386E8E272E03B3 PUSH1 0x40 MLOAD PUSH1 0x40 MLOAD DUP1 SWAP2 SUB SWAP1 LOG1 PUSH2 0x33C DUP1 PUSH2 0x4C PUSH1 0x0 CODECOPY PUSH1 0x0 RETURN INVALID PUSH1 0x80 PUSH1 0x40 MSTORE CALLVALUE DUP1 ISZERO PUSH2 0x10 JUMPI PUSH1 0x0 DUP1 REVERT JUMPDEST POP PUSH1 0x4 CALLDATASIZE LT PUSH2 0x41 JUMPI PUSH1 0x0 CALLDATALOAD PUSH1 0xE0 SHR DUP1 PUSH4 0x2BB969E6 EQ PUSH2 0x46 JUMPI DUP1 PUSH4 0x7600232D EQ PUSH2 0x50 JUMPI DUP1 PUSH4 0xC26F3C69 EQ PUSH2 0x6C JUMPI JUMPDEST PUSH1 0x0 DUP1 REVERT JUMPDEST PUSH2 0x4E PUSH2 0x88 JUMP JUMPDEST STOP JUMPDEST PUSH2 0x6A PUSH1 0x4 DUP1 CALLDATASIZE SUB DUP2 ADD SWAP1 PUSH2 0x65 SWAP2 SWAP1 PUSH2 0x207 JUMP JUMPDEST PUSH2 0xB6 JUMP JUMPDEST STOP JUMPDEST PUSH2 0x86 PUSH1 0x4 DUP1 CALLDATASIZE SUB DUP2 ADD SWAP1 PUSH2 0x81 SWAP2 SWAP1 PUSH2 0x207 JUMP JUMPDEST PUSH2 0x122 JUMP JUMPDEST STOP JUMPDEST PUSH32 0x4DBFB68B43DDDFA12B51EBE99AB8FDED620F9A0AC23142879A4F192A1B7952D2 PUSH1 0x40 MLOAD PUSH1 0x40 MLOAD DUP1 SWAP2 SUB SWAP1 LOG1 JUMP JUMPDEST PUSH32 0x4DBFB68B43DDDFA12B51EBE99AB8FDED620F9A0AC23142879A4F192A1B7952D2 PUSH1 0x40 MLOAD PUSH1 0x40 MLOAD DUP1 SWAP2 SUB SWAP1 LOG1 PUSH32 0x70CFECBFED19AC7DCD94D8821E2895B8D2BBBD12AC7D81586659183BC5019AEA DUP4 DUP4 DUP4 PUSH1 0x40 MLOAD PUSH2 0x115 SWAP4 SWAP3 SWAP2 SWAP1 PUSH2 0x2D4 JUMP JUMPDEST PUSH1 0x40 MLOAD DUP1 SWAP2 SUB SWAP1 LOG1 POP POP POP JUMP JUMPDEST PUSH32 0x70CFECBFED19AC7DCD94D8821E2895B8D2BBBD12AC7D81586659183BC5019AEA DUP4 DUP4 DUP4 PUSH1 0x40 MLOAD PUSH2 0x155 SWAP4 SWAP3 SWAP2 SWAP1 PUSH2 0x2D4 JUMP JUMPDEST PUSH1 0x40 MLOAD DUP1 SWAP2 SUB SWAP1 LOG1 POP POP POP JUMP JUMPDEST PUSH1 0x0 DUP1 REVERT JUMPDEST PUSH1 0x0 DUP1 REVERT JUMPDEST PUSH1 0x0 DUP2 SWAP1 POP SWAP2 SWAP1 POP JUMP JUMPDEST PUSH2 0x17F DUP2 PUSH2 0x16C JUMP JUMPDEST DUP2 EQ PUSH2 0x18A JUMPI PUSH1 0x0 DUP1 REVERT JUMPDEST POP JUMP JUMPDEST PUSH1 0x0 DUP2 CALLDATALOAD SWAP1 POP PUSH2 0x19C DUP2 PUSH2 0x176 JUMP JUMPDEST SWAP3 SWAP2 POP POP JUMP JUMPDEST PUSH1 0x0 DUP1 REVERT JUMPDEST PUSH1 0x0 DUP1 REVERT JUMPDEST PUSH1 0x0 DUP1 REVERT JUMPDEST PUSH1 0x0 DUP1 DUP4 PUSH1 0x1F DUP5 ADD SLT PUSH2 0x1C7 JUMPI PUSH2 0x1C6 PUSH2 0x1A2 JUMP JUMPDEST JUMPDEST DUP3 CALLDATALOAD SWAP1 POP PUSH8 0xFFFFFFFFFFFFFFFF DUP2 GT ISZERO PUSH2 0x1E4 JUMPI PUSH2 0x1E3 PUSH2 0x1A7 JUMP JUMPDEST JUMPDEST PUSH1 0x20 DUP4 ADD SWAP2 POP DUP4 PUSH1 0x1 DUP3 MUL DUP4 ADD GT ISZERO PUSH2 0x200 JUMPI PUSH2 0x1FF PUSH2 0x1AC JUMP JUMPDEST JUMPDEST SWAP3 POP SWAP3 SWAP1 POP JUMP JUMPDEST PUSH1 0x0 DUP1 PUSH1 0x0 PUSH1 0x40 DUP5 DUP7 SUB SLT ISZERO PUSH2 0x220 JUMPI PUSH2 0x21F PUSH2 0x162 JUMP JUMPDEST JUMPDEST PUSH1 0x0 PUSH2 0x22E DUP7 DUP3 DUP8 ADD PUSH2 0x18D JUMP JUMPDEST SWAP4 POP POP PUSH1 0x20 DUP5 ADD CALLDATALOAD PUSH8 0xFFFFFFFFFFFFFFFF DUP2 GT ISZERO PUSH2 0x24F JUMPI PUSH2 0x24E PUSH2 0x167 JUMP JUMPDEST JUMPDEST PUSH2 0x25B DUP7 DUP3 DUP8 ADD PUSH2 0x1B1 JUMP JUMPDEST SWAP3 POP SWAP3 POP POP SWAP3 POP SWAP3 POP SWAP3 JUMP JUMPDEST PUSH2 0x270 DUP2 PUSH2 0x16C JUMP JUMPDEST DUP3 MSTORE POP POP JUMP JUMPDEST PUSH1 0x0 DUP3 DUP3 MSTORE PUSH1 0x20 DUP3 ADD SWAP1 POP SWAP3 SWAP2 POP POP JUMP JUMPDEST DUP3 DUP2 DUP4 CALLDATACOPY PUSH1 0x0 DUP4 DUP4 ADD MSTORE POP POP POP JUMP JUMPDEST PUSH1 0x0 PUSH1 0x1F NOT PUSH1 0x1F DUP4 ADD AND SWAP1 POP SWAP2 SWAP1 POP JUMP JUMPDEST PUSH1 0x0 PUSH2 0x2B3 DUP4 DUP6 PUSH2 0x276 JUMP JUMPDEST SWAP4 POP PUSH2 0x2C0 DUP4 DUP6 DUP5 PUSH2 0x287 JUMP JUMPDEST PUSH2 0x2C9 DUP4 PUSH2 0x296 JUMP JUMPDEST DUP5 ADD SWAP1 POP SWAP4 SWAP3 POP POP POP JUMP JUMPDEST PUSH1 0x0 PUSH1 0x40 DUP3 ADD SWAP1 POP PUSH2 0x2E9 PUSH1 0x0 DUP4 ADD DUP7 PUSH2 0x267 JUMP JUMPDEST DUP2 DUP2 SUB PUSH1 0x20 DUP4 ADD MSTORE PUSH2 0x2FC DUP2 DUP5 DUP7 PUSH2 0x2A7 JUMP JUMPDEST SWAP1 POP SWAP5 SWAP4 POP POP POP POP JUMP INVALID LOG2 PUSH5 0x6970667358 0x22 SLT KECCAK256 DUP5 CODECOPY SWAP7 INVALID LOG4 SWAP5 0x4E SAR 0xB2 0xC4 0xE9 0xD9 LOG4 0xC7 PUSH16 0x4C009297C0F6974BCDFE5D18DB6FE520 0xB0 PUSH5 0x736F6C6343 STOP ADDMOD MULMOD STOP CALLER "},"methodIdentifiers":{"emitBothEvents(uint256,string)":"7600232d","emitMyEvent()":"2bb969e6","emitMyEventWithData(uint256,string)":"c26f3c69"}}}}}