{"contracts/Counter.sol":{"Counter":{"abi":[{"anonymous":false,"inputs":[{"indexed":false,"internalType":"uint256","name":"oldValue","type":"uint256"},{"indexed":false,"internalType":"uint256","name":"newValue","type":"uint256"}],"name":"ValueChanged","type":"event"},{"inputs":[],"name":"getCount","outputs":[{"internalType":"uint256","name":"","type":"uint256"}],"stateMutability":"view","type":"function"},{"inputs":[],"name":"increment","outputs":[],"stateMutability":"nonpayable","type":"function"}],"evm":{"bytecode":{"linkReferences":{},"object":"60806040526000805534801561001457600080fd5b5061021c806100246000396000f3fe608060405234801561001057600080fd5b50600436106100365760003560e01c8063a87d942c1461003b578063d09de08a14610059575b600080fd5b610043610063565b60405161005091906100e9565b60405180910390f35b61006161006c565b005b60008054905090565b600160008082825461007e9190610133565b925050819055507f2db947ef788961acc438340dbcb4e242f80d026b621b7c98ee3061995039038260016000546100b59190610189565b6000546040516100c69291906101bd565b60405180910390a1565b6000819050919050565b6100e3816100d0565b82525050565b60006020820190506100fe60008301846100da565b92915050565b7f4e487b7100000000000000000000000000000000000000000000000000000000600052601160045260246000fd5b600061013e826100d0565b9150610149836100d0565b9250827fffffffffffffffffffffffffffffffffffffffffffffffffffffffffffffffff0382111561017e5761017d610104565b5b828201905092915050565b6000610194826100d0565b915061019f836100d0565b9250828210156101b2576101b1610104565b5b828203905092915050565b60006040820190506101d260008301856100da565b6101df60208301846100da565b939250505056fea2646970667358221220cc675fe31270f6ea8a80c17a3ef3182d3da9d770229733e710bee516a99d9b2964736f6c63430008090033","opcodes":"PUSH1 0x80 PUSH1 0x40 MSTORE PUSH1 0x0 DUP1 SSTORE CALLVALUE DUP1 ISZERO PUSH2 0x14 JUMPI PUSH1 0x0 DUP1 REVERT JUMPDEST POP PUSH2 0x21C DUP1 PUSH2 0x24 PUSH1 0x0 CODECOPY PUSH1 0x0 RETURN INVALID PUSH1 0x80 PUSH1 0x40 MSTORE CALLVALUE DUP1 ISZERO PUSH2 0x10 JUMPI PUSH1 0x0 DUP1 REVERT JUMPDEST POP PUSH1 0x4 CALLDATASIZE LT PUSH2 0x36 JUMPI PUSH1 0x0 CALLDATALOAD PUSH1 0xE0 SHR DUP1 PUSH4 0xA87D942C EQ PUSH2 0x3B JUMPI DUP1 PUSH4 0xD09DE08A EQ PUSH2 0x59 JUMPI JUMPDEST PUSH1 0x0 DUP1 REVERT JUMPDEST PUSH2 0x43 PUSH2 0x63 JUMP JUMPDEST PUSH1 0x40 MLOAD PUSH2 0x50 SWAP2 SWAP1 PUSH2 0xE9 JUMP JUMPDEST PUSH1 0x40 MLOAD DUP1 SWAP2 SUB SWAP1 RETURN JUMPDEST PUSH2 0x61 PUSH2 0x6C JUMP JUMPDEST STOP JUMPDEST PUSH1 0x0 DUP1 SLOAD SWAP1 POP SWAP1 JUMP JUMPDEST PUSH1 0x1 PUSH1 0x0 DUP1 DUP3 DUP3 SLOAD PUSH2 0x7E SWAP2 SWAP1 PUSH2 0x133 JUMP JUMPDEST SWAP3 POP POP DUP2 SWAP1 SSTORE POP PUSH32 0x2DB947EF788961ACC438340DBCB4E242F80D026B621B7C98EE30619950390382 PUSH1 0x1 PUSH1 0x0 SLOAD PUSH2 0xB5 SWAP2 SWAP1 PUSH2 0x189 JUMP JUMPDEST PUSH1 0x0 SLOAD PUSH1 0x40 MLOAD PUSH2 0xC6 SWAP3 SWAP2 SWAP1 PUSH2 0x1BD JUMP JUMPDEST PUSH1 0x40 MLOAD DUP1 SWAP2 SUB SWAP1 LOG1 JUMP JUMPDEST PUSH1 0x0 DUP2 SWAP1 POP SWAP2 SWAP1 POP JUMP JUMPDEST PUSH2 0xE3 DUP2 PUSH2 0xD0 JUMP JUMPDEST DUP3 MSTORE POP POP JUMP JUMPDEST PUSH1 0x0 PUSH1 0x20 DUP3 ADD SWAP1 POP PUSH2 0xFE PUSH1 0x0 DUP4 ADD DUP5 PUSH2 0xDA JUMP JUMPDEST SWAP3 SWAP2 POP POP JUMP JUMPDEST PUSH32 0x4E487B7100000000000000000000000000000000000000000000000000000000 PUSH1 0x0 MSTORE PUSH1 0x11 PUSH1 0x4 MSTORE PUSH1 0x24 PUSH1 0x0 REVERT JUMPDEST PUSH1 0x0 PUSH2 0x13E DUP3 PUSH2 0xD0 JUMP JUMPDEST SWAP2 POP PUSH2 0x149 DUP4 PUSH2 0xD0 JUMP JUMPDEST SWAP3 POP DUP3 PUSH32 0xFFFFFFFFFFFFFFFFFFFFFFFFFFFFFFFFFFFFFFFFFFFFFFFFFFFFFFFFFFFFFFFF SUB DUP3 GT ISZERO PUSH2 0x17E JUMPI PUSH2 0x17D PUSH2 0x104 JUMP JUMPDEST JUMPDEST DUP3 DUP3 ADD SWAP1 POP SWAP3 SWAP2 POP POP JUMP JUMPDEST PUSH1 0x0 PUSH2 0x194 DUP3 PUSH2 0xD0 JUMP JUMPDEST SWAP2 POP PUSH2 0x19F DUP4 PUSH2 0xD0 JUMP JUMPDEST SWAP3 POP DUP3 DUP3 LT ISZERO PUSH2 0x1B2 JUMPI PUSH2 0x1B1 PUSH2 0x104 JUMP JUMPDEST JUMPDEST DUP3 DUP3 SUB SWAP1 POP SWAP3 SWAP2 POP POP JUMP JUMPDEST PUSH1 0x0 PUSH1 0x40 DUP3 ADD SWAP1 POP PUSH2 0x1D2 PUSH1 0x0 DUP4 ADD DUP6 PUSH2 0xDA JUMP JUMPDEST PUSH2 0x1DF PUSH1 0x20 DUP4 ADD DUP5 PUSH2 0xDA JUMP JUMPDEST SWAP4 SWAP3 POP POP POP JUMP INVALID LOG2 PUSH5 0x6970667358 0x22 SLT KECCAK256 0xCC PUSH8 0x5FE31270F6EA8A80 0xC1 PUSH27 0x3EF3182D3DA9D770229733E710BEE516A99D9B2964736F6C634300 ADDMOD MULMOD STOP CALLER "},"methodIdentifiers":{"getCount()":"a87d942c","increment()":"d09de08a"}}}}}