{"contracts/SimpleSidetreeAnchor.sol":{"SimpleSidetreeAnchor":{"abi":[{"anonymous":false,"inputs":[{"indexed":false,"internalType":"bytes32","name":"anchorFileHash","type":"bytes32"},{"indexed":true,"internalType":"uint256","name":"transactionNumber","type":"uint256"},{"indexed":false,"internalType":"uint256","name":"numberOfOperations","type":"uint256"},{"indexed":false,"internalType":"address","name":"writer","type":"address"}],"name":"Anchor","type":"event"},{"inputs":[{"internalType":"bytes32","name":"_anchorHash","type":"bytes32"},{"internalType":"uint256","name":"_numberOfOperations","type":"uint256"}],"name":"anchorHash","outputs":[],"stateMutability":"nonpayable","type":"function"},{"inputs":[],"name":"transactionNumber","outputs":[{"internalType":"uint256","name":"","type":"uint256"}],"stateMutability":"view","type":"function"}],"evm":{"bytecode":{"linkReferences":{},"object":"60806040526000805534801561001457600080fd5b506102ef806100246000396000f3fe608060405234801561001057600080fd5b50600436106100365760003560e01c80634cd27ad51461003b578063aac4c5c414610057575b600080fd5b61005560048036038101906100509190610143565b610075565b005b61005f6100cc565b60405161006c9190610192565b60405180910390f35b6000547fb4f61711f79e76c7c0495763576465dc425bc281adf632799374ab5c83bc1d458383336040516100ab939291906101fd565b60405180910390a260016000546100c29190610263565b6000819055505050565b60005481565b600080fd5b6000819050919050565b6100ea816100d7565b81146100f557600080fd5b50565b600081359050610107816100e1565b92915050565b6000819050919050565b6101208161010d565b811461012b57600080fd5b50565b60008135905061013d81610117565b92915050565b6000806040838503121561015a576101596100d2565b5b6000610168858286016100f8565b92505060206101798582860161012e565b9150509250929050565b61018c8161010d565b82525050565b60006020820190506101a76000830184610183565b92915050565b6101b6816100d7565b82525050565b600073ffffffffffffffffffffffffffffffffffffffff82169050919050565b60006101e7826101bc565b9050919050565b6101f7816101dc565b82525050565b600060608201905061021260008301866101ad565b61021f6020830185610183565b61022c60408301846101ee565b949350505050565b7f4e487b7100000000000000000000000000000000000000000000000000000000600052601160045260246000fd5b600061026e8261010d565b91506102798361010d565b9250827fffffffffffffffffffffffffffffffffffffffffffffffffffffffffffffffff038211156102ae576102ad610234565b5b82820190509291505056fea264697066735822122027717346f49d9c102b49a395ab2d10666adcca377ccf8e260f261780ed0744f264736f6c63430008090033","opcodes":"PUSH1 0x80 PUSH1 0x40 MSTORE PUSH1 0x0 DUP1 SSTORE CALLVALUE DUP1 ISZERO PUSH2 0x14 JUMPI PUSH1 0x0 DUP1 REVERT JUMPDEST POP PUSH2 0x2EF DUP1 PUSH2 0x24 PUSH1 0x0 CODECOPY PUSH1 0x0 RETURN INVALID PUSH1 0x80 PUSH1 0x40 MSTORE CALLVALUE DUP1 ISZERO PUSH2 0x10 JUMPI PUSH1 0x0 DUP1 REVERT JUMPDEST POP PUSH1 0x4 CALLDATASIZE LT PUSH2 0x36 JUMPI PUSH1 0x0 CALLDATALOAD PUSH1 0xE0 SHR DUP1 PUSH4 0x4CD27AD5 EQ PUSH2 0x3B JUMPI DUP1 PUSH4 0xAAC4C5C4 EQ PUSH2 0x57 JUMPI JUMPDEST PUSH1 0x0 DUP1 REVERT JUMPDEST PUSH2 0x55 PUSH1 0x4 DUP1 CALLDATASIZE SUB DUP2 ADD SWAP1 PUSH2 0x50 SWAP2 SWAP1 PUSH2 0x143 JUMP JUMPDEST PUSH2 0x75 JUMP JUMPDEST STOP JUMPDEST PUSH2 0x5F PUSH2 0xCC JUMP JUMPDEST PUSH1 0x40 MLOAD PUSH2 0x6C SWAP2 SWAP1 PUSH2 0x192 JUMP JUMPDEST PUSH1 0x40 MLOAD DUP1 SWAP2 SUB SWAP1 RETURN JUMPDEST PUSH1 0x0 SLOAD PUSH32 0xB4F61711F79E76C7C0495763576465DC425BC281ADF632799374AB5C83BC1D45 DUP4 DUP4 CALLER PUSH1 0x40 MLOAD PUSH2 0xAB SWAP4 SWAP3 SWAP2 SWAP1 PUSH2 0x1FD JUMP JUMPDEST PUSH1 0x40 MLOAD DUP1 SWAP2 SUB SWAP1 LOG2 PUSH1 0x1 PUSH1 0x0 SLOAD PUSH2 0xC2 SWAP2 SWAP1 PUSH2 0x263 JUMP JUMPDEST PUSH1 0x0 DUP2 SWAP1 SSTORE POP POP POP JUMP JUMPDEST PUSH1 0x0 SLOAD DUP2 JUMP JUMPDEST PUSH1 0x0 DUP1 REVERT JUMPDEST PUSH1 0x0 DUP2 SWAP1 POP SWAP2 SWAP1 POP JUMP JUMPDEST PUSH2 0xEA DUP2 PUSH2 0xD7 JUMP JUMPDEST DUP2 EQ PUSH2 0xF5 JUMPI PUSH1 0x0 DUP1 REVERT JUMPDEST POP JUMP JUMPDEST PUSH1 0x0 DUP2 CALLDATALOAD SWAP1 POP PUSH2 0x107 DUP2 PUSH2 0xE1 JUMP JUMPDEST SWAP3 SWAP2 POP POP JUMP JUMPDEST PUSH1 0x0 DUP2 SWAP1 POP SWAP2 SWAP1 POP JUMP JUMPDEST PUSH2 0x120 DUP2 PUSH2 0x10D JUMP JUMPDEST DUP2 EQ PUSH2 0x12B JUMPI PUSH1 0x0 DUP1 REVERT JUMPDEST POP JUMP JUMPDEST PUSH1 0x0 DUP2 CALLDATALOAD SWAP1 POP PUSH2 0x13D DUP2 PUSH2 0x117 JUMP JUMPDEST SWAP3 SWAP2 POP POP JUMP JUMPDEST PUSH1 0x0 DUP1 PUSH1 0x40 DUP4 DUP6 SUB SLT ISZERO PUSH2 0x15A JUMPI PUSH2 0x159 PUSH2 0xD2 JUMP JUMPDEST JUMPDEST PUSH1 0x0 PUSH2 0x168 DUP6 DUP3 DUP7 ADD PUSH2 0xF8 JUMP JUMPDEST SWAP3 POP POP PUSH1 0x20 PUSH2 0x179 DUP6 DUP3 DUP7 ADD PUSH2 0x12E JUMP JUMPDEST SWAP2 POP POP SWAP3 POP SWAP3 SWAP1 POP JUMP JUMPDEST PUSH2 0x18C DUP2 PUSH2 0x10D JUMP JUMPDEST DUP3 MSTORE POP POP JUMP JUMPDEST PUSH1 0x0 PUSH1 0x20 DUP3 ADD SWAP1 POP PUSH2 0x1A7 PUSH1 0x0 DUP4 ADD DUP5 PUSH2 0x183 JUMP JUMPDEST SWAP3 SWAP2 POP POP JUMP JUMPDEST PUSH2 0x1B6 DUP2 PUSH2 0xD7 JUMP JUMPDEST DUP3 MSTORE POP POP JUMP JUMPDEST PUSH1 0x0 PUSH20 0xFFFFFFFFFFFFFFFFFFFFFFFFFFFFFFFFFFFFFFFF DUP3 AND SWAP1 POP SWAP2 SWAP1 POP JUMP JUMPDEST PUSH1 0x0 PUSH2 0x1E7 DUP3 PUSH2 0x1BC JUMP JUMPDEST SWAP1 POP SWAP2 SWAP1 POP JUMP JUMPDEST PUSH2 0x1F7 DUP2 PUSH2 0x1DC JUMP JUMPDEST DUP3 MSTORE POP POP JUMP JUMPDEST PUSH1 0x0 PUSH1 0x60 DUP3 ADD SWAP1 POP PUSH2 0x212 PUSH1 0x0 DUP4 ADD DUP7 PUSH2 0x1AD JUMP JUMPDEST PUSH2 0x21F PUSH1 0x20 DUP4 ADD DUP6 PUSH2 0x183 JUMP JUMPDEST PUSH2 0x22C PUSH1 0x40 DUP4 ADD DUP5 PUSH2 0x1EE JUMP JUMPDEST SWAP5 SWAP4 POP POP POP POP JUMP JUMPDEST PUSH32 0x4E487B7100000000000000000000000000000000000000000000000000000000 PUSH1 0x0 MSTORE PUSH1 0x11 PUSH1 0x4 MSTORE PUSH1 0x24 PUSH1 0x0 REVERT JUMPDEST PUSH1 0x0 PUSH2 0x26E DUP3 PUSH2 0x10D JUMP JUMPDEST SWAP2 POP PUSH2 0x279 DUP4 PUSH2 0x10D JUMP JUMPDEST SWAP3 POP DUP3 PUSH32 0xFFFFFFFFFFFFFFFFFFFFFFFFFFFFFFFFFFFFFFFFFFFFFFFFFFFFFFFFFFFFFFFF SUB DUP3 GT ISZERO PUSH2 0x2AE JUMPI PUSH2 0x2AD PUSH2 0x234 JUMP JUMPDEST JUMPDEST DUP3 DUP3 ADD SWAP1 POP SWAP3 SWAP2 POP POP JUMP INVALID LOG2 PUSH5 0x6970667358 0x22 SLT KECCAK256 0x27 PUSH18 0x7346F49D9C102B49A395AB2D10666ADCCA37 PUSH29 0xCF8E260F261780ED0744F264736F6C6343000809003300000000000000 "},"methodIdentifiers":{"anchorHash(bytes32,uint256)":"4cd27ad5","transactionNumber()":"aac4c5c4"}}}}}