{
  "_format": "hh-sol-artifact-1",
  "contractName": "EventEmitter",
  "sourceName": "contracts/EventEmitter.sol",
  "abi": [
    {
      "inputs": [],
      "stateMutability": "nonpayable",
      "type": "constructor"
    },
    {
      "anonymous": false,
      "inputs": [],
      "name": "ConstructorEvent",
      "type": "event"
    },
    {
      "anonymous": false,
      "inputs": [],
      "name": "MyEvent",
      "type": "event"
    },
    {
      "anonymous": false,
      "inputs": [
        {
          "indexed": false,
          "internalType": "uint256",
          "name": "",
          "type": "uint256"
        },
        {
          "indexed": false,
          "internalType": "string",
          "name": "",
          "type": "string"
        }
      ],
      "name": "MyEventWithData",
      "type": "event"
    },
    {
      "inputs": [
        {
          "internalType": "uint256",
          "name": "x",
          "type": "uint256"
        },
        {
          "internalType": "string",
          "name": "s",
          "type": "string"
        }
      ],
      "name": "emitBothEvents",
      "outputs": [],
      "stateMutability": "nonpayable",
      "type": "function"
    },
    {
      "inputs": [],
      "name": "emitMyEvent",
      "outputs": [],
      "stateMutability": "nonpayable",
      "type": "function"
    },
    {
      "inputs": [
        {
          "internalType": "uint256",
          "name": "x",
          "type": "uint256"
        },
        {
          "internalType": "string",
          "name": "s",
          "type": "string"
        }
      ],
      "name": "emitMyEventWithData",
      "outputs": [],
      "stateMutability": "nonpayable",
      "type": "function"
    }
  ],
  "bytecode": "0x608060405234801561001057600080fd5b507f8d8cf4a5428f07ff52f5ac64c4cf7d30fd3ad16b6c04aabbf5386e8e272e03b360405160405180910390a161033c8061004c6000396000f3fe608060405234801561001057600080fd5b50600436106100415760003560e01c80632bb969e6146100465780637600232d14610050578063c26f3c691461006c575b600080fd5b61004e610088565b005b61006a60048036038101906100659190610207565b6100b6565b005b61008660048036038101906100819190610207565b610122565b005b7f4dbfb68b43dddfa12b51ebe99ab8fded620f9a0ac23142879a4f192a1b7952d260405160405180910390a1565b7f4dbfb68b43dddfa12b51ebe99ab8fded620f9a0ac23142879a4f192a1b7952d260405160405180910390a17f70cfecbfed19ac7dcd94d8821e2895b8d2bbbd12ac7d81586659183bc5019aea838383604051610115939291906102d4565b60405180910390a1505050565b7f70cfecbfed19ac7dcd94d8821e2895b8d2bbbd12ac7d81586659183bc5019aea838383604051610155939291906102d4565b60405180910390a1505050565b600080fd5b600080fd5b6000819050919050565b61017f8161016c565b811461018a57600080fd5b50565b60008135905061019c81610176565b92915050565b600080fd5b600080fd5b600080fd5b60008083601f8401126101c7576101c66101a2565b5b8235905067ffffffffffffffff8111156101e4576101e36101a7565b5b602083019150836001820283011115610200576101ff6101ac565b5b9250929050565b6000806000604084860312156102205761021f610162565b5b600061022e8682870161018d565b935050602084013567ffffffffffffffff81111561024f5761024e610167565b5b61025b868287016101b1565b92509250509250925092565b6102708161016c565b82525050565b600082825260208201905092915050565b82818337600083830152505050565b6000601f19601f8301169050919050565b60006102b38385610276565b93506102c0838584610287565b6102c983610296565b840190509392505050565b60006040820190506102e96000830186610267565b81810360208301526102fc8184866102a7565b905094935050505056fea2646970667358221220843996fea4944e1db2c4e9d9a4c76f4c009297c0f6974bcdfe5d18db6fe520b064736f6c63430008090033",
  "linkReferences": {},
  "deployedLinkReferences": {}
}