{
  "_format": "hh-sol-artifact-1",
  "contractName": "ContractManagerSol",
  "sourceName": "contracts/ContractManagerSol.sol",
  "abi": [
    {
      "inputs": [
        {
          "internalType": "string",
          "name": "_name",
          "type": "string"
        }
      ],
      "name": "createTicket",
      "outputs": [],
      "stateMutability": "nonpayable",
      "type": "function"
    },
    {
      "inputs": [],
      "name": "getTickets",
      "outputs": [
        {
          "components": [
            {
              "internalType": "uint8",
              "name": "status",
              "type": "uint8"
            },
            {
              "internalType": "string",
              "name": "name",
              "type": "string"
            }
          ],
          "internalType": "struct ContractManagerSol.Ticket[]",
          "name": "",
          "type": "tuple[]"
        }
      ],
      "stateMutability": "view",
      "type": "function"
    },
    {
      "inputs": [
        {
          "internalType": "uint256",
          "name": "",
          "type": "uint256"
        }
      ],
      "name": "tickets",
      "outputs": [
        {
          "internalType": "uint8",
          "name": "status",
          "type": "uint8"
        },
        {
          "internalType": "string",
          "name": "name",
          "type": "string"
        }
      ],
      "stateMutability": "view",
      "type": "function"
    },
    {
      "inputs": [
        {
          "internalType": "uint256",
          "name": "_index",
          "type": "uint256"
        },
        {
          "internalType": "string",
          "name": "_name",
          "type": "string"
        }
      ],
      "name": "updateTicketName",
      "outputs": [],
      "stateMutability": "nonpayable",
      "type": "function"
    },
    {
      "inputs": [
        {
          "internalType": "uint256",
          "name": "_index",
          "type": "uint256"
        },
        {
          "internalType": "uint8",
          "name": "_status",
          "type": "uint8"
        }
      ],
      "name": "updateTicketStatus",
      "outputs": [],
      "stateMutability": "nonpayable",
      "type": "function"
    }
  ],
  "bytecode": "0x608060405234801561001057600080fd5b50610a62806100206000396000f3fe608060405234801561001057600080fd5b50600436106100575760003560e01c80634ed026221461005c57806350b447121461007a5780636897082f146100ab578063a460b817146100c7578063d4ab7b83146100e3575b600080fd5b6100646100ff565b6040516100719190610634565b60405180910390f35b610094600480360381019061008f91906106a0565b61020d565b6040516100a2929190610726565b60405180910390f35b6100c560048036038101906100c0919061088b565b6102d6565b005b6100e160048036038101906100dc9190610900565b61035d565b005b6100fd60048036038101906100f89190610940565b61039f565b005b60606000805480602002602001604051908101604052809291908181526020016000905b8282101561020457838290600052602060002090600202016040518060400160405290816000820160009054906101000a900460ff1660ff1660ff168152602001600182018054610173906109cb565b80601f016020809104026020016040519081016040528092919081815260200182805461019f906109cb565b80156101ec5780601f106101c1576101008083540402835291602001916101ec565b820191906000526020600020905b8154815290600101906020018083116101cf57829003601f168201915b50505050508152505081526020019060010190610123565b50505050905090565b6000818154811061021d57600080fd5b90600052602060002090600202016000915090508060000160009054906101000a900460ff1690806001018054610253906109cb565b80601f016020809104026020016040519081016040528092919081815260200182805461027f906109cb565b80156102cc5780601f106102a1576101008083540402835291602001916102cc565b820191906000526020600020905b8154815290600101906020018083116102af57829003601f168201915b5050505050905082565b60006040518060400160405280600060ff16815260200183815250908060018154018082558091505060019003906000526020600020906002020160009091909190915060008201518160000160006101000a81548160ff021916908360ff16021790555060208201518160010190805190602001906103579291906103dd565b50505050565b8060008381548110610372576103716109fd565b5b906000526020600020906002020160000160006101000a81548160ff021916908360ff1602179055505050565b80600083815481106103b4576103b36109fd565b5b906000526020600020906002020160010190805190602001906103d89291906103dd565b505050565b8280546103e9906109cb565b90600052602060002090601f01602090048101928261040b5760008555610452565b82601f1061042457805160ff1916838001178555610452565b82800160010185558215610452579182015b82811115610451578251825591602001919060010190610436565b5b50905061045f9190610463565b5090565b5b8082111561047c576000816000905550600101610464565b5090565b600081519050919050565b600082825260208201905092915050565b6000819050602082019050919050565b600060ff82169050919050565b6104c2816104ac565b82525050565b600081519050919050565b600082825260208201905092915050565b60005b838110156105025780820151818401526020810190506104e7565b83811115610511576000848401525b50505050565b6000601f19601f8301169050919050565b6000610533826104c8565b61053d81856104d3565b935061054d8185602086016104e4565b61055681610517565b840191505092915050565b600060408301600083015161057960008601826104b9565b50602083015184820360208601526105918282610528565b9150508091505092915050565b60006105aa8383610561565b905092915050565b6000602082019050919050565b60006105ca82610480565b6105d4818561048b565b9350836020820285016105e68561049c565b8060005b858110156106225784840389528151610603858261059e565b945061060e836105b2565b925060208a019950506001810190506105ea565b50829750879550505050505092915050565b6000602082019050818103600083015261064e81846105bf565b905092915050565b6000604051905090565b600080fd5b600080fd5b6000819050919050565b61067d8161066a565b811461068857600080fd5b50565b60008135905061069a81610674565b92915050565b6000602082840312156106b6576106b5610660565b5b60006106c48482850161068b565b91505092915050565b6106d6816104ac565b82525050565b600082825260208201905092915050565b60006106f8826104c8565b61070281856106dc565b93506107128185602086016104e4565b61071b81610517565b840191505092915050565b600060408201905061073b60008301856106cd565b818103602083015261074d81846106ed565b90509392505050565b600080fd5b600080fd5b7f4e487b7100000000000000000000000000000000000000000000000000000000600052604160045260246000fd5b61079882610517565b810181811067ffffffffffffffff821117156107b7576107b6610760565b5b80604052505050565b60006107ca610656565b90506107d6828261078f565b919050565b600067ffffffffffffffff8211156107f6576107f5610760565b5b6107ff82610517565b9050602081019050919050565b82818337600083830152505050565b600061082e610829846107db565b6107c0565b90508281526020810184848401111561084a5761084961075b565b5b61085584828561080c565b509392505050565b600082601f83011261087257610871610756565b5b813561088284826020860161081b565b91505092915050565b6000602082840312156108a1576108a0610660565b5b600082013567ffffffffffffffff8111156108bf576108be610665565b5b6108cb8482850161085d565b91505092915050565b6108dd816104ac565b81146108e857600080fd5b50565b6000813590506108fa816108d4565b92915050565b6000806040838503121561091757610916610660565b5b60006109258582860161068b565b9250506020610936858286016108eb565b9150509250929050565b6000806040838503121561095757610956610660565b5b60006109658582860161068b565b925050602083013567ffffffffffffffff81111561098657610985610665565b5b6109928582860161085d565b9150509250929050565b7f4e487b7100000000000000000000000000000000000000000000000000000000600052602260045260246000fd5b600060028204905060018216806109e357607f821691505b602082108114156109f7576109f661099c565b5b50919050565b7f4e487b7100000000000000000000000000000000000000000000000000000000600052603260045260246000fdfea26469706673582212207c3a9c014be60d65d35ac10780fd3f735e6e3835768709bc476b1d6b8295b5e564736f6c63430008090033",
  "linkReferences": {},
  "deployedLinkReferences": {}
}