{
  "_format": "hh-sol-artifact-1",
  "contractName": "SimpleSidetreeAnchor",
  "sourceName": "contracts/SimpleSidetreeAnchor.sol",
  "abi": [
    {
      "anonymous": false,
      "inputs": [
        {
          "indexed": false,
          "internalType": "bytes32",
          "name": "anchorFileHash",
          "type": "bytes32"
        },
        {
          "indexed": true,
          "internalType": "uint256",
          "name": "transactionNumber",
          "type": "uint256"
        },
        {
          "indexed": false,
          "internalType": "uint256",
          "name": "numberOfOperations",
          "type": "uint256"
        },
        {
          "indexed": false,
          "internalType": "address",
          "name": "writer",
          "type": "address"
        }
      ],
      "name": "Anchor",
      "type": "event"
    },
    {
      "inputs": [
        {
          "internalType": "bytes32",
          "name": "_anchorHash",
          "type": "bytes32"
        },
        {
          "internalType": "uint256",
          "name": "_numberOfOperations",
          "type": "uint256"
        }
      ],
      "name": "anchorHash",
      "outputs": [],
      "stateMutability": "nonpayable",
      "type": "function"
    },
    {
      "inputs": [],
      "name": "transactionNumber",
      "outputs": [
        {
          "internalType": "uint256",
          "name": "",
          "type": "uint256"
        }
      ],
      "stateMutability": "view",
      "type": "function"
    }
  ],
  "bytecode": "0x60806040526000805534801561001457600080fd5b506102ef806100246000396000f3fe608060405234801561001057600080fd5b50600436106100365760003560e01c80634cd27ad51461003b578063aac4c5c414610057575b600080fd5b61005560048036038101906100509190610143565b610075565b005b61005f6100cc565b60405161006c9190610192565b60405180910390f35b6000547fb4f61711f79e76c7c0495763576465dc425bc281adf632799374ab5c83bc1d458383336040516100ab939291906101fd565b60405180910390a260016000546100c29190610263565b6000819055505050565b60005481565b600080fd5b6000819050919050565b6100ea816100d7565b81146100f557600080fd5b50565b600081359050610107816100e1565b92915050565b6000819050919050565b6101208161010d565b811461012b57600080fd5b50565b60008135905061013d81610117565b92915050565b6000806040838503121561015a576101596100d2565b5b6000610168858286016100f8565b92505060206101798582860161012e565b9150509250929050565b61018c8161010d565b82525050565b60006020820190506101a76000830184610183565b92915050565b6101b6816100d7565b82525050565b600073ffffffffffffffffffffffffffffffffffffffff82169050919050565b60006101e7826101bc565b9050919050565b6101f7816101dc565b82525050565b600060608201905061021260008301866101ad565b61021f6020830185610183565b61022c60408301846101ee565b949350505050565b7f4e487b7100000000000000000000000000000000000000000000000000000000600052601160045260246000fd5b600061026e8261010d565b91506102798361010d565b9250827fffffffffffffffffffffffffffffffffffffffffffffffffffffffffffffffff038211156102ae576102ad610234565b5b82820190509291505056fea264697066735822122027717346f49d9c102b49a395ab2d10666adcca377ccf8e260f261780ed0744f264736f6c63430008090033",
  "linkReferences": {},
  "deployedLinkReferences": {}
}