{
  "_format": "hh-sol-artifact-1",
  "contractName": "Counter",
  "sourceName": "contracts/Counter.sol",
  "abi": [
    {
      "anonymous": false,
      "inputs": [
        {
          "indexed": false,
          "internalType": "uint256",
          "name": "oldValue",
          "type": "uint256"
        },
        {
          "indexed": false,
          "internalType": "uint256",
          "name": "newValue",
          "type": "uint256"
        }
      ],
      "name": "ValueChanged",
      "type": "event"
    },
    {
      "inputs": [],
      "name": "getCount",
      "outputs": [
        {
          "internalType": "uint256",
          "name": "",
          "type": "uint256"
        }
      ],
      "stateMutability": "view",
      "type": "function"
    },
    {
      "inputs": [],
      "name": "increment",
      "outputs": [],
      "stateMutability": "nonpayable",
      "type": "function"
    }
  ],
  "bytecode": "0x60806040526000805534801561001457600080fd5b5061021c806100246000396000f3fe608060405234801561001057600080fd5b50600436106100365760003560e01c8063a87d942c1461003b578063d09de08a14610059575b600080fd5b610043610063565b60405161005091906100e9565b60405180910390f35b61006161006c565b005b60008054905090565b600160008082825461007e9190610133565b925050819055507f2db947ef788961acc438340dbcb4e242f80d026b621b7c98ee3061995039038260016000546100b59190610189565b6000546040516100c69291906101bd565b60405180910390a1565b6000819050919050565b6100e3816100d0565b82525050565b60006020820190506100fe60008301846100da565b92915050565b7f4e487b7100000000000000000000000000000000000000000000000000000000600052601160045260246000fd5b600061013e826100d0565b9150610149836100d0565b9250827fffffffffffffffffffffffffffffffffffffffffffffffffffffffffffffffff0382111561017e5761017d610104565b5b828201905092915050565b6000610194826100d0565b915061019f836100d0565b9250828210156101b2576101b1610104565b5b828203905092915050565b60006040820190506101d260008301856100da565b6101df60208301846100da565b939250505056fea2646970667358221220cc675fe31270f6ea8a80c17a3ef3182d3da9d770229733e710bee516a99d9b2964736f6c63430008090033",
  "linkReferences": {},
  "deployedLinkReferences": {}
}